:1016E5004144433A30782533582028252E33666DFA
:1016F50076292C205644445F566F6C746167653AB1
:10170500252E33666D76202C2042616E64676170EC
:101715005F566F6C746167653A252E33666D760D7D
:101725000A005644445F566F6C74616765203D201E
:101735002565202C2042616E646761705F566F6C71
:1017450074616765203D2025650D0A0054696D6546
:1017550072204C4F473A202562640D0A00554152CC
:0A17650054305F496E69740D0A00EC
:101C4A0044004200000000420046000041003C00FF
:101C5A0041003D00420048000042003200004400BA
:0F1C6A003400000000420038000042003A000041
:10102100E4900000F0A3F0900042E0FCA3E0FDA3F7
:10103100E0FEA3E05401FFE4FEFDFCEF60047F014C
:1010410080027F00EF700302113E900034E0F8A3AC
:10105100E0F9A3E0FAA3E0FB900046E0FEA3E0FF85
:10106100E4FCFDEB2FFFEA3EFEED39FDEC38FC9090
:1010710000341206C4900032E475F0011205AEAFDF
:10108100F0FEE4FCFD7B03FAF9F8D31206A040035D
:10109100021125E4900032F0A3F0A3E0FCA3E0FDEF
:1010A100A3E0FEA3E0FF78021206B1900000EEF08B
:1010B100A3EFF09000341206D00000000090000071
:1010C100E0FCA3E0FD900005ECF0A3EDF0E41202DA
:1010D1002990003EE0F8A3E0F9A3E0FAA3E0FB12B7
:1010E100007E7B007AF0797F7845120187900007B6
:1010F1001206C490003EE0FCA3E0FDA3E0FEA3E0E5
:10110100FF90000B1206C490004AE0FCA3E0FDA38F
:10111100E0FEA3E0FF90000F1206C47BFF7A167970
:10112100E51207B2900042E0FCA3E0FDA3E0FEA3BC
:10113100E054FEFFEEEDEC9000421206C490004236
:10114100E0FCA3E0FDA3E0FEA3E05402FFE4FEFD0A
:10115100FCEF60047F0180027F00EF601F9000427E
:10116100E0FCA3E0FDA3E0FEA3E054FDFFEEEDEC07
:0C1171009000421206C4E4F59143A14036
:01117D00224F
:03005B0002196522
:10196500C0E0C0F0C083C082C0D075D000C000C048
:1019750004C005C006C007C091900042E0FCA3E08A
:10198500FDA3E0FEA3E04401FFEEEDEC9000421262
:1019950006C475910053A17FAFC3EF75F010A4ADD8
:1019A500C27C002DFEEC35F0900046F0A3CEF0D0C1
:1019B50091D007D006D005D004D000D0D0D082D0A9
:0619C50083D0F0D0E032F7
:101292007D087F017E00120BCA7D077F0312005E6C
:1012A200E4F59153A17FF59143A140E5A130E7FB1D
:1012B200AFC3EF75F010A4ADC27C002DFEEC35F08B
:1012C200900000F0A3CEF012187AAC06AD07E4123B
:1012D2000229C004C005C006C007900000E0FCA3BC
:1012E200E0FDE4120229A804A905AA06AB07D0076B
:1012F200D006D005D004120187E4FBFA7940784584
:1013020012007E90003E1206C412187AAC06AD0797
:10131200E4120229E4FBFA7940784012007EE4FBF1
:10132200FA79807840120187E4FBFA797A784412DC
:10133200018790004A1206C47BFF7A177927900032
:101342003EE0FCA3E0FDA3E0FEA3E0FF9000051257
:1013520006C490004AE0FCA3E0FDA3E0FEA3E0FF88
:091362009000091206C41207B242
:01136B00225F
:101BCA007F03121B331212927D057F017E00120BD6
:101BDA00CA7D077F0212005E7D017F01121C80D23E
:101BEA00AFE4F59153A17FF59143A140900042E003
:101BFA00FCA3E0FDA3E0FEA3E054FEFFEEEDEC90B3
:061C0A0000421206C42294
:101A8900900042E0FCA3E0FDA3E0FEA3E05404FFC4
:101A9900E4FEFDFCEF60047F0180027F00EF60350A
:101AA900900042E0FCA3E0FDA3E0FEA3E054FBFFAD
:101AB900EEEDEC9000421206C47BFF7A1779519043
:101AC9000048E475F0011205AEAFF0900005F0A3EF
:091AD900EFF01207B212102122F5
:101DF30075910253FA0F75910153B1F743B208225B
:1018F100900038E475F0011205AEAFF0FEE4FCFD96
:101901007BE87A03F9F8D31206A05022E49000385C
:10191100F0A3F0B283900042E0FCA3E0FDA3E0FE5F
:10192100A3E04404FFEEEDEC9000421206C49000E7
:101931003AE475F0011205AEFEC3E5F09432EE947F
:10194100004020E490003AF0A3F0900042E0FCA3B4
:10195100E0FDA3E0FEA3E04402FFEEEDEC900042C7
:031961001206C4A7
:011964002260
:03000B00021B8253
:101B8200C0E0C0F0C083C082C0D075D000C000C029
:101B920001C002C003C004C005C006C00790003CDB
:101BA200E0F58CA3E0F58A5388DF1218F1D007D054
:101BB20006D005D004D003D002D001D000D0D0D0BE
:081BC20082D083D0F0D0E032A4
:101D3100E4900000F0A3F0F5915389F043890190FC
:101D4100003C74F8F0A37430F0758CF8F58A43A860
:061D510002D2AF4388102E
:011D57002269
:101C100075910253F60F43F66075910153C2FD535F
:101C2000C3FD9000047402F0A31206D00001C200AC
:101C30007F007E367D6E7C01120EA4439802D2098D
:0A1C40007BFF7A1779621207B222C7
:101D08007F0212117E759101E4F5B1F5B2F5B3F5D4
:101D1800B4F5B5F5B6F5C2F5C3F5B9F5BAF5BDF53F
:091D2800BE759102F584F58522D7
:10000E00121D08121C10121DF3121D31121BCA12E2
:05001E001A8980FB229D
:101A2E00E4F591A2AF920DC2AF75C7AA75C7554323
:101A3E009720A20D92AFE59630E5FBE4F591A2AFAB
:101A4E00920DC2AF75C7AA75C7555396FBA20D92DC
:101A5E00AFF591A2AF920DC2AF75C7AA75C7555318
:101A6E0096FDA20D92AFA2AF920DC2AF75C7AA7529
:0B1A7E00C755759734A20D92AF0022EF
:10117E00EF14604914606614700302120C147003AD
:10118E0002124A240460030212917F021214387F65
:10119E0002121AE2E4FF121438E4FF121AE2E59783
:1011AE0030E003121A2EE4F591A2AF920DC2AF7584
:1011BE00C7AA75C7555397DFA20D92AF227F0212B1
:1011CE0014387F02121AE27F011214387F01121AAC
:1011DE00E2E59720E003021291121A2E227F0212EC
:1011EE0014387F02121AE2E4F591A2AF920DC2AF4B
:1011FE0075C7AA75C75553977FA20D92AF227F036D
:10120E001214387F03121AE2E59730E003121A2EF9
:10121E00E4F591A2AF920DC2AF75C7AA75C755532B
:10122E0097DFA20D92AFF591A2AF920DC2AF75C727
:10123E00AA75C75553977FA20D92AF227F02121443
:10124E00387F02121AE27F041214387F04121AE257
:10125E00E59730E003121A2EE4F591A2AF920DC27B
:10126E00AF75C7AA75C7555397DFA20D92AFF5910B
:10127E00A2AF920DC2AF75C7AA75C75553977FA27D
:04128E000D92AF22EC
:10143800EF1460371460551460731470030214D6E7
:10144800240460030214F4E4F591A2AF920DC2AF34
:1014580075C7AA75C755439780A20D92AFE5964404
:101468007F647F60030214F480F322E4F591A2AF55
:10147800920DC2AF75C7AA75C755439740A20D9282
:10148800AFE59644BF64BF706380F622E4F591A28D
:10149800AF920DC2AF75C7AA75C755439720A20D65
:1014A80092AFE59644DF64DF704280F622E4F5915E
:1014B800A2AF920DC2AF75C7AA75C755439710A2C0
:1014C8000D92AFE59644EF64EF702180F622E4F5C3
:1014D80091A2AF920DC2AF75C7AA75C755439708B9
:0D14E800A20D92AFE59644F764F760F8227C
:1017F600EF14602414603814604C14606024047084
:1018060072E4F591A2AF920DC2AF75C7AA75C7551E
:1018160053977FA20D92AF22E4F591A2AF920DC22B
:10182600AF75C7AA75C7555397BFA20D92AF22E4ED
:10183600F591A2AF920DC2AF75C7AA75C75553975A
:10184600DFA20D92AF22E4F591A2AF920DC2AF7561
:10185600C7AA75C7555397EFA20D92AF22E4F5912B
:10186600A2AF920DC2AF75C7AA75C7555397F7A217
:041876000D92AF22FE
:101AE200A2AF920DC2AFEF146018146020146028E8
:101AF2001460302404703575C7AA75C7554396061D
:101B0200802A75C7AA75C755439607801F75C7AA4D
:101B120075C7555396F8801475C7AA75C75543966D
:101B220004800975C7AA75C755439602A20D92AFE4
:011B32002290
:101DDC00E4F591A2AF920DC2AF75C7AA75C7554372
:071DEC009F80A20D92AF22BF
:100BCA00EE7016EF24FE600B04700EE4F59153E10B
:100BDA00EF8006E4F59143E110EDB4110040030201
:100BEA000E9D900BF3F8282873020C26020C4C0277
:100BFA000C75020C9E020CC7020CF0020D19020DB4
:100C0A0042020E6B020E83020D6B020D96020DC19B
:100C1A00020DEC020E17020E41020E91759102535B
:100C2A00F40F43F41075910143B52053B6DF759163
:100C3A0001E4F5CE43CE01F59153A1F043E101025F
:100C4A000E9D75910253F4F043F40175910143B579
:100C5A001053B6EF759101E4F5CE43CE02F59153E8
:100C6A00A1F043A10143E101020E9D75910253F3E4
:100C7A000F43F31075910143B50853B6F775910107
:100C8A00E4F5CE43CE04F59153A1F043A10243E12A
:100C9A0001020E9D75910253F3F043F30175910120
:100CAA0043B50453B6FB759101E4F5CE43CE08F57E
:100CBA009153A1F043A10343E101020E9D759102F4
:100CCA0053F20F43F21075910143B50253B6FD7505
:100CDA009101E4F5CE43CE10F59153A1F043A1045E
:100CEA0043E101020E9D75910253F2F043F2017540
:100CFA00910143B50153B6FE759101E4F5CE43CE99
:100D0A0020F59153A1F043A10543E101020E9D751F
:100D1A00910253F60F43F61075910143C20253C371
:100D2A00FD759101E4F5CE43CE40F59153A1F04310
:100D3A00A10643E101020E9D75910253F7F043F7B4
:100D4A000175910143C20453C3FB759101E4F5CEC9
:100D5A0043CE80F59153A1F043A10743E101020E6E
:100D6A009D75910253F6F043F60175910143C20154
:100D7A0053C3FEE4F591759102F5CE43CE04F59185
:100D8A0053A13043A10A43E101020E9D759102531A
:100D9A00950F43951075910243848053857FE4F53E
:100DAA0091759102F5CE43CE08F59153A13043A136
:100DBA000B43E101020E9D7591025395F043950193
:100DCA007591024384405385BFE4F591759102F50C
:100DDA00CE43CE10F59153A13043A10C43E1010259
:100DEA000E9D75910253940F43941075910243849A
:100DFA00205385DFE4F591759102F5CE43CE20F5B7
:100E0A009153A13043A10D43E101020E9D75910258
:100E1A005394F04394017591024384105385EFE48F
:100E2A00F591759102F5CE43CE40F59153A1304329
:100E3A00A10E43E101805C75910253F50F43F51051
:100E4A0075910143B58053B67FE4F591759102F52A
:100E5A00CE43CE80F59153A13043A10F43E10180E7
:100E6A0032E4F59153E1FEF59143A140F59153A186
:100E7A00F043A10843E101801AE4F59153A1F0433C
:100E8A00A10943E101800CE4F59153A1F043A10AC1
:0A0E9A0043E101E4F59143E1012278
:071E0B00E4F59153E1FE2212
:101CAE0090004EEEF0A3EFF0E4F591EFF5CB90003F
:101CBE004EE0F5E4ED14F5E5EB14600A04700DE466
:0D1CCE00F59143E78022E4F59153E77F2272
:10005E00E4F59153E78FEF5407FFC454F042E75392
:0B006E00E2F1ED5407FF25E042E22222
:1019CB00E4F591EF14600F14601414601924037084
:1019DB001B53A1CF801653A1CF43A110800E53A14F
:1019EB00CF43A120800653A1CF43A130ED14600F4C
:1019FB001460141460192403701B53E1F380165305
:101A0B00E1F343E104800E53E1F343E10880065315
:101A1B00E1F343E10CAF038FE3E4F59153A1BF4333
:031A2B00E10222B3
:071E1200E4F59153E1FD220C
:101C8000E4F591EF14600704702353A8BF22ED140C
:101C9000600D24FE60112403701043E130800B437B
:0E1CA000E10153E1DF800353E1CF43A840226E
:10187A00E4F591A2AF920DC2AF75C7AA75C75543D9
:10188A009F01A20D92AF75AF0475A60DF5A7F5914C
:10189A00A2AF920DC2AF75C7AA75C75543A401A2DC
:1018AA000D92AFE5AE540FFD75A60CE4F591A2AF0B
:1018BA00920DC2AF75C7AA75C75543A401A20D926E
:1018CA00AFAFAEEF75F010A47C002DFFEC35F0FE43
:1018DA00E4F591A2AF920DC2AF75C7AA75C7555369
:0618EA009FFEA20D92AF6B
:0118F00022D5
:10176F00759101EB14604204707CEFB40700507662
:10177F00901786F828287302179B02179F0217A34A
:10178F000217A70217AB0217AF0217B3ED4292224F
:10179F00ED429322ED429422ED429522ED429622A4
:1017AF00ED429722ED42972222EFB4070050379077
:1017BF0017C5F82828730217DA0217DE0217E2029C
:1017CF0017E60217EA0217EE0217F2ED428A22ED30
:1017DF00428B22ED428C22ED428D22ED428E22ED84
:0717EF00428F22ED428F2220
:1015B000759101EB14604F04600302164AEFB40703
:1015C00000400302164A9015CDF82828730215E250
:1015D0000215E70215EC0215F10215F60215FB02E1
:1015E0001600EDF4529222EDF4529322EDF452944F
:1015F00022EDF4529522EDF4529622EDF452972208
:10160000EDF452972222EFB40700503E901613F8E3
:1016100028287302162802162D02163202163702E7
:10162000163C021641021646EDF4528A22EDF4529F
:101630008B22EDF4528C22EDF4528D22EDF4528E79
:0B16400022EDF4528F22EDF4528F22B5
:07136C00A905900052EFF00B
:10137300759101EFB407005044901383F828287344
:1013830002139802139E0213A40213AA0213B002BB
:1013930013B60213BCACB1AEB28022ACB3AEB48010
:1013A3001CACB5AEB68016ACC2AEC38010ACB9AE41
:1013B300BA800AACBDAEBE8004AC84AE85EB1460CB
:1013C3001414601A14602024037022E9F4FF5CFCF7
:1013D300EE5FFE8018E9F45CFCEE49FE800FEC49F9
:1013E300FCE9F45EFE8006EC49FCEE49FE900052F7
:1013F300E0B40700503E901400F828287302141537
:1014030002141A02141F02142402142902142E02B5
:1014130014338CB18EB2228CB38EB4228CB58EB6BB
:10142300228CC28EC3228CB98EBA228CBD8EBE2270
:041433008C848E8592
:011437002292
:080003003099FDC2998F99228A
:061C7900C109C10AC10B04
:1000260075910253F60F43F66075910153C2FD5365
:10003600C3FD9000047402F0A31206D00001C200B2
:100046007F007E367D6E7C01120EA4439802D20993
:010056002287
:03002300021D9F1C
:101D9F00C0E0C083C082C09130980BD20B9000502E
:0F1DAF00E599F05398FED091D082D083D0E032E6
:03007B00021D580B
:101D5800C0E0C083C082C09130F80AD20C90005114
:101D6800E59AF0C2F830F905200A02C2F9D091D0FC
:061D780082D083D0E032AE
:100EA4009000001206C4900004E024FE605D1470FB
:100EB40003020F9C24FD600D147003020F9C240692
:100EC4006003021020E4F59175985043892043870C
:100ED40080F591438E10F59153C4DF7B10FAF9F835
:100EE400900000E0FCA3E0FDA3E0FEA3E0FF1206F7
:100EF40000900005E0F8A3E0F9A3E0FAA3E0FB12F8
:100F04000600EFF404F58D43884022E4F5917598CA
:100F14005043878053C4F8F59143C4207B10FAF9F9
:100F2400F8900000E0FCA3E0FDA3E0FEA3E0FF12C4
:100F34000600900005E0F8A3E0F9A3E0FAA3E0FBC3
:100F4400120600C3E49FFFE49EFE74019DFDE49C31
:100F5400FC78081206B18FC6E47B10FAF9F8900009
:100F640000E0FCA3E0FDA3E0FEA3E0FF1206009076
:100F74000005E0F8A3E0F9A3E0FAA3E0FB12060001
:100F8400C3E49FFFE49EFE74019DFDE49CFCEFE43A
:100F94008FC5F59143C40822E4F59175F85075C4E2
:100FA400887B10FAF9F8900000E0FCA3E0FDA3E0D0
:100FB400FEA3E0FF120600900005E0F8A3E0F9A309
:100FC400E0FAA3E0FB120600C3E49FFFE49EFE7474
:100FD400019DFDE49CFC78081206B18FC6E47B10E9
:100FE400FAF9F8900000E0FCA3E0FDA3E0FEA3E022
:100FF400FF120600900005E0F8A3E0F9A3E0FAA3CD
:10100400E0FB120600C3E49FFFE49EFE74019DFD15
:0D101400E49CFCEFE48FC5F59143C4082275
:101DBE00E4F591EF24F9600C0470103098FDAE99A3
:0D1DCE00C298800730F8FDAE9AC2F8AF064B
:011DDB0022E5
:101D7E00E4F591EF24F9600D047015C2998D993038
:101D8E0099FDC29922C2F9AF058F9A30F9FDC2F9B9
:011D9E002222
:101CDB00EF24F96013047024ED14600704701D5396
:101CEB00A8EF2243A8102222ED14600A04700DE421
:0D1CFB00F591539CFE22E4F591439C0122DB
:041E03008F828E83B9
:031E0700E493FF62
:011E0A0022B5
:1014F500EF14600B24FC505D240560030215AFE476
:10150500F591A2AF920DC2AF75C7AA75C755439F96
:1015150001A20D92AF75A643F5A775AF04F591A28B
:10152500AF920DC2AF75C7AA75C75543A401A20DE9
:1015350092AFAEAE75910175C7AA75C7558EAAF55E
:1015450091A2AF920DC2AF75C7AA75C755539FFE3D
:10155500A20D92AF22E4F591A2AF920DC2AF75C76D
:10156500AA75C755439F01A20D92AF75A646F5A76B
:1015750075AF04F591A2AF920DC2AF75C7AA75C735
:101585005543A401A20D92AFAEAE75910175C7AAE0
:1015950075C7558EAAF591A2AF920DC2AF75C7AAB0
:0A15A50075C755539FFEA20D92AFCB
:0115AF002219
:101B3300AD071214F5759101AF05EFC454F04403DA
:0B1B4300420F75C7AA75C755850FA992
:101B4E00E4F509E4F508000508E508B4FFF8050911
:051B5E00E509B41AEED8
:101B6300E4F50BE4F50A00050AE50AB4FFF8050BF2
:051B7300E50BB41AEEC1
:0A1B780075C7AA75C75553A9FD22D1
:0300000002164B9A
:10164B00787FE4F6D8FD9000007FFF7E10E4F0A3D6
:0A165B00DFFCDEFA7581210216A003
:10007E00EC4D6011E8497017ED33EC3304600DE47C
:10008E00FCFFFEFD22E933E8330470F802029712FA
:10009E00026258046009E4CC2481500628500902FB
:1000AE0002A128400302029EC0E0EB4A7044B980D0
:1000BE0006D0E0FB02028DEF4E701CBD8008EBFFF8
:1000CE00EAFEE9FD80EBE98DF0A4FEE5F0020167A2
:1000DE00E9CDF9EAFEEBFFEF89F0A4FCE5F0CE895D
:1000EE00F0A42EFFE435F0CD89F0A42DFEE435F01A
:1000FE008067EF4E7005BD80D780C3EF8BF0A4AC48
:10010E00F0EE8BF0A42CFCE435F0F8EF8AF0A42C82
:10011E00E5F038FCE433CB8DF0A42CFCE5F03BF895
:10012E00EE8AF0A42CFCE5F038F8E433CF89F0A485
:10013E002CFCE5F038CF3400CE89F0A42FFFE5F08B
:10014E003EFEE433C98DF0A42EFEE5F039CD8AF0E3
:10015E00A42FFFE5F03EFEE43DFD33D0E0FB50075B
:10016E000BBB000F0202A1EC2CFCEF33FFEE33FEB3
:06017E00ED33FD020279E1
:100184000202A1EC5D046005E859047003020297C1
:10019400120262580460F6EC4860F2EC7004FDFE52
:1001A400FF22C860DB2481C85009C398600250064E
:1001B40002029E9850CAF582E9294B4A7005AB8227
:1001C40002028D75F0007C1A7880C3EF9BEE9AEDE5
:1001D40099400DC3EF9BFFEE9AFEED99FDE842F0C6
:1001E400DC23ACF0D0E0FFD0E0FED0E0FDAB822019
:1001F400E7101BEB60BAEC2CFCEF33FFEE33FEEDA3
:1002040033FD020279E803F830E705C0F075F00029
:10021400EF2FFFEE33FEED33FD40B830E7C280AA86
:1002240075F020800E75F010800575F0087D007E55
:10023400007F003392D530D503120692EC33401080
:10024400EF33FFEE33FEED33FDEC33FCD5F0ED225E
:0E025400E5F0247EA2D513CC92E7CDCEFF229A
:10074700E5082405F582E43400F583E005082290E6
:100757000002300703900005E475F001120701025B
:1007670005562000E97F2ED2008018EF540F249001
:10077700D43440D4FF30040BEF24BFB41A00500325
:100787002461FFE50960021509050CE50C700205F7
:100797000B30070E900002E475F001120701EF021B
:1007A700059C0200037403D2078003E4C207F5081F
:1007B700900002120718E4F509F50BF50CE509603E
:1007C700077F2012078A80F5750AFFC201C200C29F
:1007D70002C203C205C206C208120756FF700D30D7
:1007E70007057F0012079BAF0CAE0B22B4255FC233
:1007F700D5C204120756FF24D0B40A00501A75F068
:100807000A780930D50508B6FF0106C6A426F620E2
:10081700D5047002D20380D924CFB41A00EF500454
:10082700C2E5D204020A8DD20180C6D20080C0D2AE
:100837000280BCD2D580BAD20580B47F2012078A45
:100847002002077401B5090040F1120747FF12079C
:100857008A0207C4D208D2068095120747FB1207FF
:1008670047FA120747F94A4B7006798B7A0B7BFFD9
:1008770020022EE509602A7E008E8275830012050C
:100887006F60060EEE650A70F0C2D5EBC0E0EAC0F5
:10089700E0E9C0E0EE120AEED0E0F9D0E0FAD0E0ED
:1008A700FB120556FF60AAEBC0E0EAC0E0E9C0E032
:1008B70012078AD0E02401F9D0E03400FAD0E0FB37
:1008C700E50A0460DCD50AD98087D20280A2120A21
:1008D700D060F7E50A7001041202ACA90A600DE5C1
:1008E7000A600914F50A120B78EF60F3EA30E702A1
:1008F700F404C3995079EAF4250A0430E701E404C3
:10090700F50A800D120AD060C1EA050A250A12020B
:10091700ACEA900031F030E701E4250A04D50A0477
:1009270020050114120AEEE4C0E0120B78900031A2
:10093700E0601320E70714F0120772802204F0D05A
:10094700E014C0E07F00120772E50A60071207692A
:10095700150A800B300503120769D0E00207C4D0DF
:10096700E00480C4120AD0609EE50A041202AC902B
:100977000031EAF0E50A2005026001042404120AA6
:01098700EE81
:1009880074FF04C0E0120B78120772E50A20050212
:100998006003120769D0E0B50AE87F4512077C902A
:1009A8000031E07F2B30E7047F2DF404C0E012070C
:1009B8008AD0E075F00A84C0F0120773D0E01207FD
:1009C800730207C4791080027908C206C208800839
:1009D800D2D5790A8004790AC2D5E50A047002F5ED
:1009E8000AE4FAFDFEFF120747FC7B0820011312F8
:1009F8000747FD7B1030000A120747FE120747FF22
:100A08007B20EC3382D592D55013C3E43000069F87
:100A1800FFE49EFEE42001039DFDE49CFCE4CBF88A
:100A2800C201EC700CCFCECDCCE824F8F870F3807E
:100A380017C3EF33FFEE33FEED33FDEC33FCEB333E
:100A4800FB994002FB0FD8E9EB300105F8D0E0C470
:100A580048B201C0E00AEC4D4E4F78207B0070C2CE
:100A6800EAB50A0040BCC0E0120AF0D0F0D0E0209D
:100A78000104C4C0E0C4B201C0F0120773D0F0D5BD
:100A8800F0EB0207C412072108615309CC58083259
:100A98004C082E4209D04F09D84409D84908474381
:100AA80009DE55090B46096B4508D5470BAB5008BD
:100AB800362D083A2E085D2B083E23085B200B9440
:100AC8002A07F64800000855E50AB4FF03750A0628
:100AD800120747FC120747FD120747FE120747FF98
:100AE80090002A0202E9790AA2D5200314300509E8
:100AF800B910020404B9080104A2D5200602500165
:100B0800042002689202B509005034C0E07F20300A
:100B180003197F30A20272067205500F120B47C2EA
:100B280002C206C205C2087F30800F300503E9C043
:100B3800E012078A300503D0E0F9D0E0B509CC30DF
:100B480005177F30B9100C12078A7F583004077FC9
:100B5800788003B9080312078A3002057F2D02073F
:100B68008A7F202008F87F2B2006F322920280CF6C
:100B78007F00B40700500B242AF582E43400F58383
:100B8800E0FF22286E756C6C2900D20112074730ED
:100B980001F8C201780930D50108F60207F62D5090
:100BA8004349581207472403B405004001E4900B59
:100BB800A69312077B743A12077BD20375090402C5
:020BC80009CC56
:10026200E9D2E7C933E833F892D5EDD2E7CD33ECE2
:0702720033FC5002B2D5225B
:10027900EC30E7100FBF000C0EBE00080DBD0004E6
:100289000BEB6014A2D5EB13FCED92E7FD2274FF92
:10029900FCFDFEFF22E480F8A2D574FF13FC7D80EB
:0302A900E480EFFF
:1002AC00F920E73624F950037907E4F42402FBE53E
:1002BC0082158270021583DBF6E024FB501BE9608B
:1002CC0014E4F0E582158270021583E004F0B40AA0
:0D02DC0008E4F0D9EE7401F00A22C2D52228
:1002E900ED33EC3392D5FA602AB4FF33EDC2E77BE4
:1002F900FF60067A03790EE4227A03791720D50480
:100309007A037912224E614E002B494E46002D493F
:100319004E4600E47A08F0A3DAFC7B00740722C099
:1003290083C082ECC0E0EDC0E0EEC0E0EFC0E0EADF
:1003390075F010A4CAABF075F04DA42BFBE435F0B1
:10034900FCEA2410FAEB34C5FBEC34D9FCEDC2E726
:10035900FF75F056A4F42411C5F0F434C58FF0A448
:100369002AE5F03BE43CF020E714120516D0E0FF43
:10037900D0E0FED0E0FDD0E0FC1201878014F40447
:10038900120516D0E0FFD0E0FED0E0FDD0E0FC126F
:10039900007ED082D083E0FAEDD2E7CD33EC33246E
:1003A90082FBE4C3CF33CFCE33CECD33CD33DBF3B2
:1003B9007B0775F00A846004F0A31B0AE5F0F0A33B
:1003C9008FF0740AA4FFACF08EF0740AA42CFEAC72
:1003D900F050010C8DF0740AA42CFDE435F0F0A363
:0503E900DBDE740722B9
:1003EE00020297E86480F8E933E83360110460F0A4
:1003FE00ED33EC337009E8FCE9FDEAFEEBFF220475
:10040E0060DED3EB9FEA9EE99DE8C2E78CF0C2F76F
:10041E0095F0400CE8CCF8E9CDF9EACEFAEBCFFB3B
:10042E0012026285D0F05804700320D5B3E8047030
:10043E00075002B2D50202A192D5EC0460F7E4CCCB
:10044E00C0E0C398F8603B94186008400DD0E0FB04
:10045E00020279E4FBFAC9FC8028E830E406E4C91C
:10046E00FBE4CAFCE830E305E4C9CACBFCE8540758
:10047E006010F8C3E913F9EA13FAEB13FBEC13FC63
:10048E00D8F130F52FC3E49CFCEF9BFFEE9AFEED06
:10049E0099FDD0E0FBEF4E4D4C701222DB030202B1
:1004AE009EEC2CFCEF33FFEE33FEED33FDED30E72B
:1004BE00EB020279EF2BFFEE3AFEED39FDD0E0FBB9
:1004CE0050130BBB00030202A1ED13FDEE13FEEF62
:0804DE0013FFEC13FC0202798C
:1004E6003F8000004120000042C80000447A00001E
:1004F600461C400047C35000497424004B189680A0
:100506004CBEBC205A0E1BCA6753C21C749DC5AE96
:10051600FB60065407601C2323120544EB54386025
:100526000912053012053F12007EECF8EDF9EEFADD
:10053600EFCB22EB12053F80F1543803241C9004C4
:10054600E6FE93FC0EEE93FD0EEE930ECE93FF2287
:1016650002000EE493A3F8E493A34003F68001F28D
:1016750008DFF48029E493A3F85407240CC8C33386
:10168500C4540F4420C8834004F456800146F6DF55
:10169500E4800B0102040810204080901C4AE47E7F
:1016A500019360BCA3FF543F30E509541FFEE4934A
:1016B500A360010ECF54C025E060A840B8E493A311
:1016C500FAE493A3F8E493A3C8C582C8CAC583CA3C
:1016D500F0A3C8C582C8CAC583CADFE9DEE780BEF4
:011C7F000064
:10055600BB010689828A83E0225002E722BBFE02A3
:09056600E32289828A83E49322D6
:10056F00BB010CE58229F582E5833AF583E0225041
:10057F0006E92582F8E622BBFE06E92582F8E2228B
:0D058F00E58229F582E5833AF583E49322A5
:10059C00BB010689828A83F0225002F722BBFE013E
:0205AC00F32238
:1005AE00A3F8E0C5F025F0F0E58215827002158300
:0605BE00E0C838F0E8225D
:1005C40075F008758200EF2FFFEE33FECD33CDCCEE
:1005D40033CCC58233C5829BED9AEC99E582984071
:1005E4000CF582EE9BFEED9AFDEC99FC0FD5F0D64E
:1005F400E4CEFBE4CDFAE4CCF9A88222B800C1B978
:100604000059BA002DEC8BF084CFCECDFCE5F0CBB5
:10061400F97818EF2FFFEE33FEED33FDEC33FCEBEE
:1006240033FB10D703994004EB99FB0FD8E5E4F9A9
:10063400FA227818EF2FFFEE33FEED33FDEC33FC96
:10064400C933C910D7059BE99A4007EC9BFCE99A8A
:10065400F90FD8E0E4C9FAE4CCFB2275F010EF2FCF
:10066400FFEE33FEED33FDCC33CCC833C810D707CF
:100674009BEC9AE899400AED9BFDEC9AFCE899F80A
:0E0684000FD5F0DAE4CDFBE4CCFAE4C8F9229D
:0E069200C3E49FFFE49EFEE49DFDE49CFC2279
:1006A000EB9FF5F0EA9E42F0E99D42F0E89C45F0B0
:0106B0002227
:1006B100E8600FECC313FCED13FDEE13FEEF13FF27
:0306C100D8F1224B
:0C06C400ECF0A3EDF0A3EEF0A3EFF022A9
:1006D000A8828583F0D083D0821206E71206E71243
:1006E00006E71206E7E473E493A3C583C5F0C58368
:1006F000C8C582C8F0A3C583C5F0C583C8C582C874
:0107000022D6
:10070100F8E0FBA3A3E0F925F0F0E5821582700281
:070711001583E0FA38F02225
:09071800EBF0A3EAF0A3E9F022E2
:10072100D083D082F8E4937012740193700DA3A367
:1007310093F8740193F5828883E47374029368607B
:06074100EFA3A3A380DF7B
:00000001FF
